:020000040800F2
:1000000080090020D50D0008B90F0008C50F0008B1
:10001000CD0F0008D50F0008DD0F0008000000001C
:10002000000000000000000000000000E50F0008D4
:10003000F10F000800000000FD0F00080910000883
:100040002D0E00082D0E00082D0E00082D0E0008A4
:100050002D0E00082D0E000889010008A1010008DE
:10006000F10200086104000879040008550D000839
:100070002D0E00082D0E00082D0E00082D0E000874
:100080002D0E00082D0E00082D0E00082D0E000864
:100090002D0E00082D0E00082D0E000891040008FA
:1000A0002D0E00082D0E00082D0E00082D0E000844
:1000B0002D0E0008B5100008F51700082D0E0008D9
:1000C0002D0E00082D0E00082D0E00082D0E000824
:1000D0002D0E00082D0E00082D0E00082D0E000814
:1000E0002D0E00082D0E00082D0E00082D0E000804
:1000F0002D0E00082D0E00082D0E0008490D0008D9
:100100002D0E00082D0E00082D0E0008610D0008B0
:100110002D0E00082D0E00082D0E00082D0E0008D3
:100120002D0E00082D0E00082D0E00082D0E0008C3
:100130002D0E00082D0E00082D0E00082D0E0008B3
:100140002D0E00082D0E00082D0E00082D0E0008A3
:100150002D0E00082D0E00082D0E00082D0E000893
:100160002D0E00082D0E00082D0E00082D0E000883
:100170002D0E00082D0E00082D0E00082D0E000873
:100180002D0E00082D0E000880B500AF012001F0F3
:1001900091FD0346002B02D0012001F0AFFD80BD90
:1001A00080B500AF022001F085FD0346002B7ED014
:1001B000022001F0A3FD3E4B5A6A3E4B1B68D31A46
:1001C0003D4A13603C4B1B68B3F5FA6F5BD23A4B68
:1001D0001B683A4A1360394B1B68184602F02AFC28
:1001E0000246374B1B681046194602F02FFD0346A6
:1001F0001A46344B1A60334B1A68334B1B6810464F
:10020000194602F06FFC03461A46304B1A602F4B1A
:100210001A682F4B1B681046194602F05BFB034619
:10022000184602F0AFFD02462A4B1A60274B1A68A7
:10023000294B1B681046194602F04CFB0346184632
:1002400002F0A0FD0246254B1A60204B1A68244B91
:100250001B681046194602F03DFB0346184602F0A3
:1002600091FD02461F4B1A60184B1A681E4B1B6803
:100270001046194602F02EFB0346184602F082FD96
:1002800002461A4B1A600A4A124B1B685363084A0B
:10029000124B1B689363064A124B1B68D363044AD4
:1002A000124B1B681364024B5B6A024A136080BDE9
:1002B00000040040840000201C00002018000020E2
:1002C00000000020200000202400002088000020E2
:1002D0008C000020C000002090000020B000002012
:1002E00094000020BC00002098000020AC000020FA
:1002F00080B582B002AF042001F0DCFC0346002B85
:1003000000F08980454B5A6A454B1B68D31AB3F5F8
:10031000FA6F5AD2414B5A6A414B1B68D31A18469E
:1003200002F088FB02463F4B1B681046194602F05C
:100330008DFC03461A463C4B1A603B4B1A683B4BFC
:100340001B681046194602F0CDFB03461A46384B8F
:100350001A60374B1A68374B1B681046194602F073
:10036000B9FA0346184602F00DFD0246324B1A60F8
:100370002F4B1A68314B1B681046194602F0AAFA37
:100380000346184602F0FEFC02462D4B1A60284B2D
:100390001A682C4B1B681046194602F09BFA03465C
:1003A000184602F0EFFC0246274B1A60204B1A68F1
:1003B000264B1B681046194602F08CFA0346184675
:1003C00002F0E0FC0246224B1A60224B1A68224BD4
:1003D0001B689A4218D10123009300203C211F4A38
:1003E0004FF4FC6300F0ACFB0C4A134B1B685363E7
:1003F0000A4A134B1B689363084A134B1B68D36369
:10040000064A134B1B681364044B5B6A044A13606F
:10041000042001F073FCBD4680BD00BF0008004011
:1004200078000020000000200400002008000020C8
:100430007C00002080000020C40000200C00002070
:10044000B400002010000020B8000020140000209C
:10045000A8000020A000002074000020A041000897
:1004600080B500AF082001F025FC0346002B02D028
:10047000082001F043FC80BD80B500AF102001F0E2
:1004800019FC0346002B02D0102001F037FC80BD80
:1004900080B582B000AF202001F00CFC0346002B99
:1004A00002D0202001F02AFC402001F003FC03468A
:1004B000002B02D0402001F021FC802001F0FAFB4B
:1004C0000346002B02D0802001F018FC4FF480700E
:1004D00001F0F0FB0346002B03D04FF4807001F0D5
:1004E0000DFC4FF4007001F0E5FB0346002B03D038
:1004F0004FF4007001F002FC0023FB800023BB805E
:100500004FF4806001F0D6FB0346002B17D00D4B53
:100510005A6AFB889A4208D20A4B5B6A9AB2FB88F5
:10052000D31A9BB2013BBB8002E0064B5B6ABB80E7
:10053000044B5B6AFB804FF4007001F0DFFB08376F
:10054000BD4680BD0004004090B484B000AF0346B7
:100550000A46FB711346BB710023FB60BB7903F0B5
:1005600003039B000F2202FA03F3FB601649BB79D9
:100570009B08DBB21846144ABB799B08DBB20233F6
:1005800052F82320FB68DB431A40831C41F82320E8
:100590000D48BB799B08DBB21C460B4ABB799B0814
:1005A000DBB2023352F82320F979BB7903F003035D
:1005B0009B0001FA03F31A43A31C40F823201037D1
:1005C000BD4690BC704700BF0038014080B582B086
:1005D00000AF1920012100F095FC4FF6FF733B603E
:1005E00003237B7101233B713B460F48194600F002
:1005F00071FD4FF478433B6003237B7101233B7112
:100600003B460A48194600F065FD01233B60032381
:100610007B7101233B713B460548194600F05AFDAA
:100620000837BD4680BD00BF00100240000C0240EC
:100630000000024080B582B000AF0346FB800D4849
:100640004FF4004100F0E2FD0A484FF4005100F081
:10065000CFFD094AFB88536106484FF4805100F0F2
:10066000D5FD04484FF4805100F0C2FD0837BD4667
:1006700080BD00BF000C02400010024080B582B077
:1006800000AF0346FB800A484FF4004100F0B0FD84
:10069000084AFB88536106484FF4805100F0B6FDCC
:1006A00003484FF4805100F0A3FD0837BD4680BDDC
:1006B000000C02400010024080B582B000AF03463B
:1006C0000A46FB801346BB800A484FF4804100F085
:1006D0009DFDFB881846FFF7ADFFBB881846FFF766
:1006E000CDFF04484FF4804100F082FD0837BD463D
:1006F00080BD00BF000C024080B584B000AF03464F
:100700000A46FB801346BB80FB88FB81BB88FB80CD
:10071000FB89C3F59F730133BB80FB884E201946CC
:10072000FFF7CAFFBB884F201946FFF7C5FF1037F8
:10073000BD4680BD80B500AFFFF748FFA5484FF428
:10074000006100F063FD642000F050FFA1484FF409
:10075000006100F04DFDA048012100F049FD00209E
:100760000121FFF7A9FF322000F040FF03204AF6E5
:10077000A401FFF7A1FF322000F038FF0C20002178
:10078000FFF79AFF322000F031FF0D2040F60C01F8
:10079000FFF792FF322000F029FF0E204FF42C517A
:1007A000FFF78AFF322000F021FF1E20B021FFF763
:1007B00083FF322000F01AFF012042F63F31FFF79D
:1007C0007BFF322000F012FF02204FF4C061FFF7E0
:1007D00073FF322000F00AFF10200021FFF76CFFAA
:1007E000322000F003FF112046F27001FFF764FF92
:1007F000322000F0FBFE05200021FFF75DFF3220D4
:1008000000F0F4FE06200021FFF756FF322000F032
:10081000EDFE16204EF61C71FFF74EFF322000F061
:10082000E5FE17200321FFF747FF322000F0DEFE30
:10083000072040F23311FFF73FFF322000F0D6FED1
:100840000B200021FFF738FF322000F0CFFE0F20F1
:100850000021FFF731FF322000F0C8FE41200021C7
:10086000FFF72AFF322000F0C1FE42200021FFF7EF
:1008700023FF322000F0BAFE48200021FFF71CFFC2
:10088000322000F0B3FE492040F23F11FFF714FF81
:10089000322000F0ABFE4A200021FFF70DFF32208E
:1008A00000F0A4FE4B200021FFF706FF322000F0ED
:1008B0009DFE44204FF46F41FFF7FEFE322000F012
:1008C00095FE45200021FFF7F7FE322000F08EFE56
:1008D000462040F23F11FFF7EFFE322000F086FE87
:1008E000302040F20771FFF7E7FE322000F07EFE75
:1008F00031204FF40171FFF7DFFE322000F076FE69
:1009000032204FF40171FFF7D7FE322000F06EFE67
:10091000332040F20251FFF7CFFE322000F066FE96
:10092000342040F20751FFF7C7FE322000F05EFE90
:1009300035204FF40171FFF7BFFE322000F056FE64
:1009400036204FF40171FFF7B7FE322000F04EFE63
:10095000372040F20251FFF7AFFE322000F046FE92
:100960003A2040F20231FFF7A7FE322000F03EFEAF
:100970003B2040F20231FFF79FFE322000F036FEAE
:1009800023200021FFF798FE322000F02FFE2420C4
:100990000021FFF791FE322000F028FE25204FF4C1
:1009A0000041FFF789FE322000F020FE4F20002199
:1009B000FFF782FE4E200021FFF77EFE322000F07E
:1009C00015FE002000F00AF84FF4FA7000F00EFE59
:1009D00080BD00BF000C02400000024080B584B022
:1009E00000AF0346FB800023FB6000200021FFF7DF
:1009F00083FE0F484FF4804100F008FC2220FFF7EF
:100A000019FE0023FB6006E0FB881846FFF736FE60
:100A1000FB680133FB60FB68B3F5963FF4D30448F1
:100A20004FF4804100F0E4FB1037BD4680BD00BFAD
:100A3000000C024080B582B000AF0346FB800B463D
:100A4000BB8013467B80FB88B3F5A07F02D2BB88B6
:100A5000EF2B00D90AE0FA88BB8810461946FFF749
:100A60004BFE7B8822201946FFF726FE0837BD463D
:100A700080BD00BF90B589B000AF0446084611465E
:100A80001A462346FB800346BB800B46FB70134689
:100A90003B803B8E022B02D0032B05D009E00623BE
:100AA000FB760823BB7609E00823FB760823BB7698
:100AB00004E00823FB761023BB7600BF07F1080192
:100AC000FA783B8E084611461A4600F0A3FA002336
:100AD000FB832CE0FB8B07F12002134413F8183C36
:100AE0007B760023BB831AE07A7EBB8BC3F10703BE
:100AF00042FA03F303F00103002B0DD0FA88BB8BFD
:100B0000134499B2BA88FB8B13449AB23B880846C7
:100B100011461A46FFF78EFFBB8B0133BB83FB7E6A
:100B20009BB2BA8B9A42DFD3FB8B0133FB83BB7E34
:100B30009BB2FA8B9A42CDD32437BD4690BD00BFFD
:100B400090B589B002AFBA601A460346FB810B46E6
:100B5000BB811346FB80BB685A1CBA601B78FB75CF
:100B6000F889B989FA7DFC883B8D00932346FFF70D
:100B700081FFFB89B3F59C7F03D2FB890833FB819E
:100B80000CE0BB89DF2B05D80023FB81BB89103328
:100B9000BB8103E00023FB810023BB81BB681B7882
:100BA000002BD8D11C37BD4690BD00BF90B585B095
:100BB00000AF0446084611461A462346FB8003460A
:100BC000BB800B467B8013463B80FB88B3F5A07F40
:100BD00002D94FF4A073FB80BB88F02B01D9F0231E
:100BE000BB80FA887B881344B3F5A07F03DDFB88C4
:100BF000C3F5A0737B80BA883B881344F02B03DDD8
:100C0000BB88C3F1F0033B80FB88FB8116E0BB8807
:100C1000BB810AE0F989BA893B8C084611461A461D
:100C2000FFF708FFBB890133BB81BA89B9883B88CC
:100C30000B449A42EEDBFB890133FB81FA89F98888
:100C40007B880B449A42E2DB1437BD4690BD00BF5F
:100C500080B500AF374B1A68374B1B6810461946F2
:100C600000F05AFC0346002B62D0344B1B68002B6B
:100C70004AD000BF2F4B1B68184600F035FC0346D6
:100C8000002BF7D12B4B1A682B4B1B6810461946CB
:100C900000F07EFC2A4B1B681A462A4B9A60274BB1
:100CA0001B684FF6FF72934228BF1346254A136113
:100CB000204B1B681846234900F0A4FB1D4B1B6802
:100CC0001846012100F0F4FB1D4B1A681B4B1B68F2
:100CD0004FF6FF718B4228BF0B465B001344184A46
:100CE0001360164B1A68154B1B684FF6FF718B4249
:100CF00028BF0B46D31A114A13600E4B1B681846C7
:100D0000012100F0D5FB13E00A4B1B6818460021B7
:100D100000F0CEFB074B1A68074B1B6810461946BC
:100D200000F036FC064B1B681846002100F084FCDE
:100D300080BD00BF3C000020480000202C000020A7
:100D4000C80000200801002080B500AFFFF780FF39
:100D500080BD00BF80B500AFFFF77AFF80BD00BF48
:100D600080B500AF0C48022100F092FD0346002B35
:100D700011D00A4B1B68022B06D100F067FC03461A
:100D80000420194600F00CF800F060FC034602480D
:100D9000194600F06FFD80BD003C0040340000208B
:100DA00080B485B000AF78600B467B800023FB6089
:100DB000074BFB60FA687B6813440833FB60FB68F1
:100DC0001A467B8813601437BD465DF8047B704774
:100DD0000074004080B582B000AF0F4B7B600F4BBA
:100DE0003B6007E03B681A1D3A607A68111D796024
:100DF00012681A603B680A4A9342F3D309480A49C9
:100E00004FF000028842B8BF40F8042BFADB00F034
:100E10005DF80837BD4680BDB065000800000020C1
:100E200078000020780000207C01002080B400AF12
:100E3000FEE700BF80B483B000AF03463960FB71AA
:100E400097F90730002B0BDA0D49FB7903F00F03FC
:100E5000043B3A68D2B21201D2B20B441A7609E0CE
:100E6000084997F907303A68D2B21201D2B20B445E
:100E700083F800230C37BD465DF8047B704700BF44
:100E800000ED00E000E100E080B582B000AF7860E6
:100E90007B68B3F1807F01D3012311E00A4A7B68AC
:100EA00023F07F43013B53604FF0FF300F21FFF7EA
:100EB000C1FF054B00229A60034B07221A600023F2
:100EC00018460837BD4680BD10E000E080B500AF91
:100ED00000F0F2F9094B1B68094AA2FB03239B09A6
:100EE0001846FFF7D1FF0346002B00D0FEE7FFF7BF
:100EF00021FC01F0CDFC00F0AFFCFEE75C0000201F
:100F0000D34D621080B483B000AF78600B46FB70A5
:100F1000FB78002B06D00949084B1A6B7B681343FA
:100F20000B6306E00549054B1A6B7B68DB431340F6
:100F30000B630C37BD465DF8047B704700380240F8
:100F400080B483B000AF78600B46FB70FB78002B59
:100F500006D00949084B1A6C7B6813430B6406E002
:100F60000549054B1A6C7B68DB4313400B640C3757
:100F7000BD465DF8047B70470038024080B483B002
:100F800000AF78600B46FB70FB78002B06D0094958
:100F9000084B5A6C7B6813434B6406E00549054BCC
:100FA0005A6C7B68DB4313404B640C37BD465DF8DD
:100FB000047B70470038024080B400AFBD465DF846
:100FC000047B704780B400AFFEE700BF80B400AF81
:100FD000FEE700BF80B400AFFEE700BF80B400AF03
:100FE000FEE700BF80B400AFBD465DF8047B7047EC
:100FF00080B400AFBD465DF8047B704780B400AF9D
:10100000BD465DF8047B704780B500AF00F002FB81
:1010100080BD00BF90B482B000AF78600B46FB701B
:1010200013463B803B88022B12D0032B1BD0002B96
:1010300024D1FB78203B1B011A4A1A447B681468B0
:1010400050689168D2681C6058609960DA6024E04A
:10105000FB78203BDB00144A1A447B681168526815
:1010600019605A6019E0FB78203BDB000F4A1A44F4
:101070007B681168526819605A600EE0FB78203B6B
:101080001B010B4A1A447B68146850689168D26847
:101090001C6058609960DA6000BF0837BD4690BC9C
:1010A000704700BFB0470008C0410008B8440008BE
:1010B000A04D000880B500AF0548012101F0BCF942
:1010C0000346002B03D00248012101F0DFF980BD67
:1010D0000004004080B487B000AF7860396000231E
:1010E0007B6100233B610023FB6000237B6176E092
:1010F0007B69012202FA03F33B613B681A683B6992
:101100001340FB60FA683B699A4265D17B681A68B4
:101110007B695B00194603238B40DB431A407B68E5
:101120001A607B681A683B681B7919467B695B000B
:1011300001FA03F31A437B681A603B681B79012BA1
:1011400003D03B681B79022B2ED17B689A687B69A0
:101150005B00194603238B40DB431A407B689A608F
:101160007B689A683B685B7919467B695B0001FA8A
:1011700003F31A437B689A607B685A687B699BB269
:10118000194601238B40DB431A407B685A607B6819
:101190005B683A68927911467A6992B201FA02F272
:1011A00092B21A437B685A607B68DA687B699BB2AB
:1011B0005B00032101FA03F3DB431A407B68DA602A
:1011C0007B68DA683B68DB7919467B695B0001FA6A
:1011D00003F31A437B68DA607B6901337B617B69C7
:1011E0000F2B85D91C37BD465DF8047B704700BFC7
:1011F00080B483B000AF78600B467B807B687A88D0
:101200001A830C37BD465DF8047B704780B483B009
:1012100000AF78600B467B807B687A885A830C37F6
:10122000BD465DF8047B704780B485B000AF786040
:101230000B467B8013467B700023FB600023BB6062
:101240007B787A8802F0070292009340FB607B88EB
:10125000DB089BB218467B88DB089BB21A467B688A
:10126000083253F822207B8803F007039B001946BD
:101270000F238B40DB4302EA03017B6800F1080285
:1012800043F822107B88DB089BB21A467B68083241
:1012900053F82220FB681343BB607B88DB089BB2BA
:1012A0001A467B680832B96843F822101437BD46E5
:1012B0005DF8047B704700BF80B500AF114A114B49
:1012C0001B6843F0010313600E4B00229A600D4A25
:1012D0000C4B1B6823F0847323F480331360094B99
:1012E000094A5A60074A074B1B6823F4802313609E
:1012F000044B0022DA6000F00BF8044B4FF0006260
:101300009A6080BD003802401030002400ED00E0FB
:1013100080B483B000AF00237B6000233B60354A7C
:10132000344B1B6843F480331360324B1B6803F467
:1013300000333B607B6801337B603B68002B03D14B
:101340007B68B3F5A06FF0D12A4B1B6803F4003320
:10135000002B02D001233B6001E000233B603B688F
:10136000012B42D1234A234B1B6C43F0805313645F
:10137000214A214B1B6843F4804313601D4A1D4BD7
:101380009B6893601B4A1B4B9B6843F4004393602C
:10139000184A184B9B6843F4A0539360154B174AA7
:1013A0005A60144A134B1B6843F08073136000BFEC
:1013B000104B1B6803F00073002BF9D0104B40F268
:1013C00005621A600B4A0B4B9B6823F00303936082
:1013D000084A084B9B6843F00203936000BF054B2B
:1013E0009B6803F00C03082BF9D10C37BD465DF860
:1013F000047B7047003802400070004019544007D9
:10140000003C024080B485B000AF786039600023B2
:10141000FB607B681B68FB60FA68244B1340FB6031
:101420003B681A683B68DB681A433B685B691A4390
:101430003B689B691A433B68DB691A433B681B6A3C
:101440001A433B685B6A1A433B689B6A1A433B68D2
:101450005B6B1A433B689B6B1343FA681343FB6057
:101460007B68FA681A607B685B69FB60FB6823F045
:101470000703FB603B68DA6A3B681B6B1343FA683F
:101480001343FB607B68FA685A613B681A697B68A2
:101490005A603B685A687B689A603B689A687B68C8
:1014A000DA601437BD465DF8047B70473F801CF05E
:1014B00080B483B000AF78600B46FB70FB78002BE4
:1014C00006D07B681B6843F001027B681A6005E068
:1014D0007B681B6823F001027B681A600C37BD46ED
:1014E0005DF8047B704700BF80B485B000AF7860C2
:1014F0000023FB737B681B6803F00103002B02D001
:101500000123FB7301E00023FB73FB7B18461437B8
:10151000BD465DF8047B704780B487B000AF78604B
:1015200039600023FB750023FB607B68154A9342FA
:1015300002D8154B3B6101E0144B3B613B6803F063
:101540000053002B03D03B695B68FB6002E03B6902
:101550001B68FB60FB6823F0F02323F08213FB6021
:10156000FA683B681340002B02D00123FB7501E0B1
:101570000023FB75FB7D18461C37BD465DF8047BD8
:10158000704700BF0F6402400060024000640240E8
:1015900080B485B000AF786039607B68104A9342B0
:1015A00002D8104BFB6001E00F4BFB603B6803F07F
:1015B0000053002B07D03B6823F0F02323F0821365
:1015C000FA68D36006E03B6823F0F02323F082132F
:1015D000FA6893601437BD465DF8047B704700BF1E
:1015E0000F640240006002400064024080B483B097
:1015F00000AF78607B68064A136000BF044B1B682D
:10160000002BFBD10C37BD465DF8047B704700BF53
:101610009C00002080B400AF064B1B68002B04D058
:10162000044B1B68013B034A1360BD465DF8047B15
:10163000704700BF9C00002080B483B000AF78608A
:1016400039600C37BD465DF8047B704780B400AF4D
:1016500000231846BD465DF8047B704780B500AF97
:1016600008200121FFF74EFC154840210222FFF718
:10167000DBFD134880210222FFF7D6FD10484FF40E
:1016800080710222FFF7D0FD0D484FF40071022255
:10169000FFF7CAFD0B4B4FF470721A60094B002222
:1016A0009A71084B0122DA71064B02221A71054B1E
:1016B00003225A7102480349FFF70CFD80BD00BFA9
:1016C000000402406801002080B582B000AF042011
:1016D0000121FFF735FC104B1B68104AA2FB0323C6
:1016E000DB0C9BB2013BFB800D4AFB8813800C4B4B
:1016F00000225A800A4B44F61F625A60084B0022AF
:101700001A810848064900F067FB0648012100F0ED
:10171000EDFB0837BD4680BD5C00002083DE1B4327
:101720005C0100200008004080B500AF1E4B602225
:101730001A801D4B01225A801B4B00229A811B4BA1
:101740001B68013B184A93601948174900F0EEFBEB
:101750001748082100F0D8FD144B1B68013B124AC2
:1017600093601348104900F05BFC1148082100F019
:10177000E7FD0E4B1B68013B0B4A93600C480A497E
:1017800000F0D6FC0A48082100F0F8FD074B1B6862
:10179000013B054A93600648034900F04FFD0448A9
:1017A000082100F007FE80BD4801002070000020E5
:1017B0000008004080B500AF0C48012100F076FB26
:1017C0000A480121012200F013FE094B1E221A7063
:1017D000074B00225A70064B00229A70044B0122DC
:1017E000DA70034800F098FA80BD00BF000800409E
:1017F0004401002080B500AF1348012100F01CFE19
:101800000346002B1ED01048012100F03FFE0F4B75
:101810001B6801330D4A13600C4B1B68322B06D139
:1018200000F09AF800F036F9084B00221A60084BD5
:101830001A68084B1B689A4204D0054B1B68013399
:10184000034A136080BD00BF00080040A4000020D0
:10185000A00000207400002080B500AFFFF7FEFE5E
:10186000FFF732FFFFF760FFFFF7A4FF00F012F968
:1018700080BD00BF80B483B000AF78600B467B8032
:101880007B687A889A810C37BD465DF8047B704787
:1018900080B485B000AF78600B467B800023FB737B
:1018A0007B681B899AB27B8813409BB2002B02D0C5
:1018B0000123FB7301E00023FB73FB7B1846143705
:1018C000BD465DF8047B704780B582B000AF78609C
:1018D00039607868396801F08FFA386801F00AFBDE
:1018E0000346C3F10403012B11D0012B02D3022BB9
:1018F0001AD028E0786801F0FDFA03461A467B68A2
:101900001344124A1068186012791A711BE0786843
:1019100001F0F0FA03461A467B6813440C4A10683B
:10192000186092889A800EE0786801F0E3FA034626
:101930001A467B681344074A1068186091889279A8
:1019400099809A7100BF0837BD4680BD6065000868
:10195000686500087065000880B594B002AF002388
:101960003B6400237B640023BB630023FB630023F1
:101970003B6300237B630023BB620023FB620023E5
:101980003B603B1D00221A60043300221A600433BE
:1019900000221A60043300221A60043300221A6005
:1019A000043300221A60043300221A600433002238
:1019B0001A60043300221A600433344B5B6B1A46FE
:1019C00007F14003104619460A2201F013FA2F4B83
:1019D0009B6B1A4607F13803104619460A2201F09C
:1019E00009FA2A4BDB6B1A4607F1300310461946F9
:1019F0000A2201F0FFF9254B1B6C1A4607F1280358
:101A0000104619460A2201F0F5F93B46184601F046
:101A100071FA03461A463B4613441D4A1068186083
:101A20009188927999809A713A4607F1400310465D
:101A30001946FFF749FF3A4607F1380310461946A1
:101A4000FFF742FF3A4607F1300310461946FFF709
:101A50003BFF3A4607F1280310461946FFF734FFCB
:101A600000230093002000214FF4A0720F23FFF702
:101A70009DF83A4601230093002000214FF4FC63B7
:101A8000FFF75EF84837BD4680BD00BF0004004048
:101A90007865000880B594B002AF00233B64002352
:101AA0007B640023BB630023FB6300233B630023B1
:101AB0007B630023BB620023FB6200233B603B1D72
:101AC00000221A60043300221A60043300221A60D4
:101AD000043300221A60043300221A600433002207
:101AE0001A60043300221A60043300221A6004339F
:101AF00000221A600433344B5B6B1A4607F1400333
:101B0000104619460A2201F075F92F4B9B6B1A46B5
:101B100007F13803104619460A2201F06BF92A4BE7
:101B2000DB6B1A4607F13003104619460A2201F012
:101B300061F9254B1B6C1A4607F12803104619461C
:101B40000A2201F057F93B46184601F0D3F9034643
:101B50001A463B4613441D4A1068186091889279D2
:101B600099809A713A4607F1400310461946FFF7EB
:101B7000ABFE3A4607F1380310461946FFF7A4FEBC
:101B80003A4607F1300310461946FFF79DFE3A46E4
:101B900007F1280310461946FFF796FE002300932D
:101BA00000200F214FF4A0720F23FEF7FFFF3A46EB
:101BB0000123009300200F214FF4FC63FEF7C0FFC8
:101BC0004837BD4680BD00BF000800408065000862
:101BD00080B485B000AF78600023FB60344BFB60BD
:101BE0007B689B79002B4FD03149314B1A687B6859
:101BF0001B68DB4313400B602D492D4B5A687B68F3
:101C00001B68DB4313404B607B681B791A46FB68FB
:101C10001344FB60FB68FA6811687A6812680A432B
:101C20001A602349224B9A687B681B68DB43134088
:101C30008B601F491E4BDA687B681B68DB431340CF
:101C4000CB607B685B79102B0ED11949184B9A68D1
:101C50007B681B6813438B601549154BDA687B68FA
:101C60001B681343CB601DE0114BFB607B685B7905
:101C70001A46FB681344FB60FB68FA6811687A68CF
:101C800012680A431A600DE07B681B791A46FB68EC
:101C90001344FB60FB68FA6811687A681268D243E3
:101CA0000A401A601437BD465DF8047B704700BFD8
:101CB000003C014080B485B000AF78600023FB7326
:101CC0000023BB600C4B1A687B681340BB600A4B57
:101CD0005A697B681340002B05D0BB68002B02D0EB
:101CE0000123FB7301E00023FB73FB7B18461437D1
:101CF000BD465DF8047B7047003C014080B483B072
:101D000000AF7860034A7B6853610C37BD465DF8CD
:101D1000047B7047003C014080B485B000AF786020
:101D20000023FB730023BB730F237B737B68DB787B
:101D3000002B38D0264BDB68DB4303F4E0631B0A3F
:101D4000FB73FB7BC3F10403BB737A7BFB7B42FA1F
:101D500003F37B737B685B781A46BB7B02FA03F361
:101D6000FB737B689A787B7B1340DAB2FB7B13436F
:101D7000FB73FB7B1B01FB73164A7B681B781344C8
:101D8000FA7B83F80023134A7B681B785B09DBB27C
:101D900018467B681B7803F01F03012101FA03F347
:101DA00042F820300FE00B497B681B785B09DBB2FF
:101DB00018467B681B7803F01F0301229A4000F14C
:101DC000200341F823201437BD465DF8047B70479B
:101DD00000ED00E000E100E080B485B000AF786085
:101DE00039600023FB817B681B88FB817B68284A64
:101DF000934213D07B68274A93420FD07B68B3F19C
:101E0000804F0BD07B68244A934207D07B68234ADB
:101E1000934203D07B68224A934208D1FB8923F086
:101E20007003FB813B685A88FB891343FB817B6805
:101E30001C4A93420CD07B681B4A934208D0FB8912
:101E400023F44073FB813B681A89FB891343FB81B0
:101E50007B68FA891A803B685A687B68DA623B685B
:101E60001A887B681A857B68094A934203D07B688D
:101E7000084A934204D13B689B7A9AB27B681A86DF
:101E80007B6801229A821437BD465DF8047B704757
:101E90000000014000040140000400400008004030
:101EA000000C0040001000400014004080B483B0DB
:101EB00000AF78600B46FB70FB78002B08D07B6886
:101EC0001B889BB243F080039AB27B681A8007E0BC
:101ED0007B681B889BB223F080039AB27B681A80D0
:101EE0000C37BD465DF8047B704700BF80B483B0FB
:101EF00000AF78600B46FB70FB78002B08D07B6846
:101F00001B889BB243F001039AB27B681A8007E0FA
:101F10007B681B889BB223F001039AB27B681A800E
:101F20000C37BD465DF8047B704700BF80B485B0B8
:101F300000AF7860396000237B810023FB810023A0
:101F4000BB817B681B8C9BB223F001039AB27B6838
:101F50001A847B681B8CFB817B689B88BB817B68B8
:101F60001B8B7B817B8923F070037B817B8923F032
:101F700003037B813B681A887B8913437B81FB8940
:101F800023F00203FB813B689A89FB891343FB81A1
:101F90003B685A88FB891343FB817B681E4A934246
:101FA00003D07B681D4A934223D1FB8923F00803A9
:101FB000FB813B68DA89FB891343FB81FB8923F0B2
:101FC0000403FB813B689A88FB891343FB81BB892F
:101FD00023F48073BB81BB8923F40073BB813B680E
:101FE0001A8ABB891343BB813B685A8ABB89134356
:101FF000BB817B68BA899A807B687A891A833B683F
:102000009A687B685A637B68FA891A841437BD46DC
:102010005DF8047B704700BF0000014000040140F0
:1020200080B485B000AF7860396000237B810023E5
:10203000FB810023BB817B681B8C9BB223F01003C8
:102040009AB27B681A847B681B8CFB817B689B88B7
:10205000BB817B681B8B7B817B8923F4E0437B8185
:102060007B8923F440737B813B681B881B029AB2F7
:102070007B8913437B81FB8923F02003FB813B6831
:102080009B891B019AB2FB891343FB813B685B88E8
:102090001B019AB2FB891343FB817B68224A93425E
:1020A00003D07B68214A93422BD1FB8923F0800324
:1020B000FB813B68DB891B019AB2FB891343FB81DF
:1020C000FB8923F04003FB813B689B881B019AB28C
:1020D000FB891343FB81BB8923F48063BB81BB89EC
:1020E00023F40063BB813B681B8A9B009AB2BB89C7
:1020F0001343BB813B685B8A9B009AB2BB89134345
:10210000BB817B68BA899A807B687A891A833B682D
:102110009A687B689A637B68FA891A841437BD468B
:102120005DF8047B704700BF0000014000040140DF
:1021300080B485B000AF7860396000237B810023D4
:10214000FB810023BB817B681B8C9BB223F48073D3
:102150009AB27B681A847B681B8CFB817B689B88A6
:10216000BB817B689B8B7B817B8923F070037B81A8
:102170007B8923F003037B813B681A887B891343A7
:102180007B81FB8923F40073FB813B689B891B02E5
:102190009AB2FB891343FB813B685B881B029AB2AE
:1021A000FB891343FB817B68224A934203D07B68FF
:1021B000214A93422BD1FB8923F40063FB813B68C6
:1021C000DB891B029AB2FB891343FB81FB8923F451
:1021D0008063FB813B689B881B029AB2FB89134397
:1021E000FB81BB8923F48053BB81BB8923F400535B
:1021F000BB813B681B8A1B019AB2BB891343BB811D
:102200003B685B8A1B019AB2BB891343BB817B6825
:10221000BA899A807B687A899A833B689A687B68D6
:10222000DA637B68FA891A841437BD465DF8047B4B
:10223000704700BF000001400004014080B485B039
:1022400000AF786039600023BB8100237B810023CD
:10225000FB817B681B8C9BB223F480539AB27B6812
:102260001A847B681B8C7B817B689B88FB817B68E5
:102270009B8BBB81BB8923F4E043BB81BB8923F4E7
:102280004073BB813B681B881B029AB2BB89134316
:10229000BB817B8923F400537B813B689B891B03B3
:1022A0009AB27B8913437B813B685B881B039AB29C
:1022B0007B8913437B817B68114A934203D07B68FF
:1022C000104A93420AD1FB8923F48043FB813B6887
:1022D0001B8A9B019AB2FB891343FB817B68FA89B5
:1022E0009A807B68BA899A833B689A687B681A648B
:1022F0007B687A891A841437BD465DF8047B704781
:10230000000001400004014080B485B000AF786057
:102310000B467B800023FB817B681B8BFB81FB8949
:1023200023F00803FB81FA897B881343FB817B68D8
:10233000FA891A831437BD465DF8047B704700BFE5
:1023400080B485B000AF78600B467B800023FB81B2
:102350007B681B8BFB81FB8923F40063FB817B88FB
:102360001B029AB2FB891343FB817B68FA891A83AB
:102370001437BD465DF8047B704700BF80B485B05C
:1023800000AF78600B467B800023FB817B689B8BD2
:10239000FB81FB8923F00803FB81FA897B881343C7
:1023A000FB817B68FA899A831437BD465DF8047B0C
:1023B000704700BF80B485B000AF78600B467B806B
:1023C0000023FB817B689B8BFB81FB8923F40063EB
:1023D000FB817B881B029AB2FB891343FB817B68DC
:1023E000FA899A831437BD465DF8047B704700BFB5
:1023F00080B483B000AF78600B467B8013467B705F
:102400007B78002B08D07B689B899AB27B8813432A
:102410009AB27B689A8109E07B689B899AB27B8833
:10242000DB439BB213409AB27B689A810C37BD465E
:102430005DF8047B704700BF80B485B000AF786062
:102440000B467B800023FB730023BB8100237B8131
:102450007B681B8A9AB27B881340BB817B689B890F
:102460009AB27B8813407B81BB89002B05D07B8986
:10247000002B02D00123FB7301E00023FB73FB7BE5
:1024800018461437BD465DF8047B704780B483B0AE
:1024900000AF78600B467B807B88DB439AB27B6819
:1024A0001A820C37BD465DF8047B704780B500AFDB
:1024B00008200121FEF726FD4FF480400121FEF7A0
:1024C0005DFD0A4B40F2FF321A60084B00221A7180
:1024D000064B00229A71054B0122DA71034B03224D
:1024E0005A7103480149FEF7F5FD80BD68010020DF
:1024F000000C024080B500AF03200021FEF724F855
:102500000F4B01221A600E4B01229A710C4B0022D4
:102510001A710B4B10225A710948FFF759FB094BEE
:1025200006221A70074B00225A70064B00229A703E
:10253000044B0122DA700348FFF7EEFB80BD00BFB9
:10254000740100207001002080B500AF032001213C
:10255000FDF7FAFF0F4B02221A600E4B01229A710F
:102560000C4B00221A710B4B10225A710948FFF7CD
:102570002FFB094B07221A70074B00225A70064B9B
:1025800001229A70044B0122DA700348FFF7C4FB62
:1025900080BD00BF740100207001002080B500AF35
:1025A00003200221FDF7D0FF0F4B04221A600E4BCF
:1025B00001229A710C4B00221A710B4B10225A7196
:1025C0000948FFF705FB094B08221A70074B002248
:1025D0005A70064B02229A70044B0122DA700348AB
:1025E000FFF79AFB80BD00BF74010020700100203E
:1025F00080B500AF03200321FDF7A6FF0F4B082293
:102600001A600E4B01229A710C4B00221A710B4B6F
:1026100010225A710948FFF7DBFA094B09221A7098
:10262000074B00225A70064B03229A70044B01227A
:10263000DA700348FFF770FB80BD00BF7401002013
:102640007001002080B500AF03200421FDF77CFF5E
:102650000F4B10221A600E4B01229A710C4B002274
:102660001A710B4B10225A710948FFF7B1FA094B46
:102670000A221A70074B00225A70064B04229A70E5
:10268000044B0122DA700348FFF746FB80BD00BF10
:10269000740100207001002080B500AF03200521E7
:1026A000FDF752FF0F4B20221A600E4B01229A7148
:1026B0000C4B00221A710B4B10225A710948FFF77C
:1026C00087FA094B17221A70074B00225A70064BE3
:1026D00004229A70044B0122DA700348FFF71CFBB6
:1026E00080BD00BF740100207001002080B500AFE4
:1026F00003200621FDF728FF0F4B40221A600E4BE6
:1027000001229A710C4B00221A710B4B10225A7144
:102710000948FFF75DFA094B17221A70074B002290
:102720005A70064B04229A70044B0122DA70034857
:10273000FFF7F2FA80BD00BF740100207001002095
:1027400080B500AF03200721FDF7FEFE0F4B80226E
:102750001A600E4B01229A710C4B00221A710B4B1E
:1027600010225A710948FFF733FA094B17221A70E1
:10277000074B00225A70064B04229A70044B012228
:10278000DA700348FFF7C8FA80BD00BF740100206B
:102790007001002080B500AF03200821FDF7D4FEB2
:1027A0000F4B4FF480721A600D4B01229A710C4B43
:1027B00000221A710A4B10225A710948FFF708FAD1
:1027C000084B17221A70074B00225A70054B04223F
:1027D0009A70044B0122DA700248FFF79DFA80BD1F
:1027E000740100207001002080B500AF0320092192
:1027F000FDF7AAFE0F4B4FF400721A600D4B012239
:102800009A710C4B00221A710A4B10225A71094816
:10281000FFF7DEF9084B17221A70074B00225A7097
:10282000054B04229A70044B0122DA700248FFF72C
:1028300073FA80BD740100207001002080B500AFE4
:1028400003200A21FDF780FE0F4B4FF480621A60CF
:102850000D4B01229A710C4B00221A710A4B102267
:102860005A710948FFF7B4F9084B17221A70074B41
:1028700000225A70054B04229A70044B0122DA7030
:102880000248FFF749FA80BD740100207001002062
:1028900080B500AFFFF70AFEFFF72CFEFFF754FEEE
:1028A000FFF77CFEFFF7A4FEFFF7CCFEFFF7F4FE78
:1028B000FFF71CFFFFF744FFFFF76CFFFFF794FFE4
:1028C000FFF7BCFF80BD00BF80F0004002E000BF0A
:1028D00081F0004142001FBF5FEA410392EA030F0B
:1028E0007FEA226C7FEA236C6AD04FEA1262D2EB55
:1028F0001363C1BFD218414048404140B8BF5B425A
:10290000192B88BF704710F0004F40F4000020F0F2
:102910007F4018BF404211F0004F41F4000121F008
:102920007F4118BF494292EA030F3FD0A2F1010252
:1029300041FA03FC10EB0C00C3F1200301FA03F190
:1029400000F0004302D5494260EB4000B0F5000FB3
:1029500013D3B0F1807F06D340084FEA310102F172
:102960000102FE2A51D2B1F1004F40EBC25008BF24
:1029700020F0010040EA03007047490040EB0000EE
:1029800010F4000FA2F10102EDD1B0FA80FCACF11D
:10299000080CB2EB0C0200FA0CF0AABF00EBC2501C
:1029A00052421843BCBFD0401843704792F0000F0A
:1029B00081F4000106BF80F400000132013BB5E75D
:1029C0004FEA41037FEA226C18BF7FEA236C21D0D3
:1029D00092EA030F04D092F0000F08BF0846704738
:1029E00090EA010F1CBF0020704712F07F4F04D106
:1029F000400028BF40F00040704712F100723CBF19
:102A000000F50000704700F0004343F0FE4040F442
:102A1000000070477FEA226216BF08467FEA236300
:102A20000146420206BF5FEA412390EA010F40F4EB
:102A3000800070474FF0000304E000BF10F0004337
:102A400048BF40425FEA000C08BF704743F096431E
:102A500001464FF000001CE050EA010208BF704739
:102A60004FF000030AE000BF50EA010208BF7047C0
:102A700011F0004302D5404261EB41015FEA010CD5
:102A800002BF84460146002043F0B64308BFA3F1CD
:102A90008053A3F50003BCFA8CF2083AA3EBC253AF
:102AA00010DB01FA02FC634400FA02FCC2F12002CE
:102AB000BCF1004F20FA02F243EB020008BF20F005
:102AC0000100704702F1200201FA02FCC2F120026B
:102AD00050EA4C0021FA02F243EB020008BF20EA60
:102AE000DC7070474FF0FF0C1CEAD0521EBF1CEA8E
:102AF000D15392EA0C0F93EA0C0F6FD01A4480EA7C
:102B0000010C400218BF5FEA41211ED04FF0006364
:102B100043EA501043EA5111A0FB01310CF0004090
:102B2000B1F5000F3EBF490041EAD3715B0040EAB6
:102B3000010062F17F02FD2A1DD8B3F1004F40EB86
:102B4000C25008BF20F00100704790F0000F0CF059
:102B5000004C08BF49024CEA502040EA51207F3A1D
:102B6000C2BFD2F1FF0340EAC250704740F40000F8
:102B70004FF00003013A5DDC12F1190FDCBF00F0E9
:102B800000407047C2F10002410021FA02F1C2F197
:102B9000200200FA02FC5FEA310040F1000053EA33
:102BA0004C0308BF20EADC70704792F0000F00F081
:102BB000004C02BF400010F4000F013AF9D040EA87
:102BC0000C0093F0000F01F0004C02BF490011F41B
:102BD000000F013BF9D041EA0C018FE70CEAD15319
:102BE00092EA0C0F18BF93EA0C0F0AD030F0004C99
:102BF00018BF31F0004CD8D180EA010000F000404D
:102C0000704790F0000F17BF90F0004F084691F00A
:102C1000000F91F0004F14D092EA0C0F01D1420244
:102C20000FD193EA0C0F03D14B0218BF084608D10D
:102C300080EA010000F0004040F0FE4040F4000057
:102C4000704740F0FE4040F4400070474FF0FF0CEA
:102C50001CEAD0521EBF1CEAD15392EA0C0F93EA31
:102C60000C0F69D0A2EB030280EA010C49024FEA83
:102C7000402037D04FF0805343EA111143EA10133C
:102C80000CF000408B4238BF5B0042F17D024FF4F4
:102C9000000C8B4224BF5B1A40EA0C00B3EB510FCF
:102CA00024BFA3EB510340EA5C00B3EB910F24BFB8
:102CB000A3EB910340EA9C00B3EBD10F24BFA3EB3D
:102CC000D10340EADC001B0118BF5FEA1C1CE0D105
:102CD000FD2A3FF650AF8B4240EBC25008BF20F0B8
:102CE000010070470CF0004C4CEA50207F32C2BF0C
:102CF000D2F1FF0340EAC250704740F400004FF0A9
:102D00000003013A37E792F0000F00F0004C02BFD9
:102D1000400010F4000F013AF9D040EA0C0093F0A3
:102D2000000F01F0004C02BF490011F4000F013BFD
:102D3000F9D041EA0C0195E70CEAD15392EA0C0F65
:102D400008D142027FF47DAF93EA0C0F7FF470AF9D
:102D5000084676E793EA0C0F04D14B023FF44CAFE0
:102D600008466EE730F0004C18BF31F0004CCAD175
:102D700030F000427FF45CAF31F000437FF43CAFB1
:102D80005FE700BF42000ED2B2F1FE4F0BD34FF00F
:102D90009E03B3EB126209D44FEA002343F00043D1
:102DA00023FA02F070474FF00000704712F1610FF4
:102DB00001D1420202D14FF0FF3070474FF00000C6
:102DC000704700BF931E222B10D80A2A10B506D0D8
:102DD00000230C46194400F0BBF8204610BD002823
:102DE000F6DA2D230B7040420123F2E70020087031
:102DF000704700BFFFF7E6BF830710B5044610D148
:102E00000268A2F1013323EA020313F0803F08D1E4
:102E100050F8042FA2F1013323EA020313F0803F9C
:102E2000F6D003781BB110F8013F002BFBD100F066
:102E300003F8204610BD00BF80EA0102844612F06C
:102E4000030F4FD111F0030F32D14DF8044D11F0A3
:102E5000040F51F8043B0BD0A3F101329A4312F056
:102E6000803F04BF4CF8043B51F8043B16D100BF2F
:102E700051F8044BA3F101329A4312F0803FA4F1C0
:102E800001320BD14CF8043BA24312F0803F04BF47
:102E900051F8043B4CF8044BEAD023460CF8013BB4
:102EA00013F0FF0F4FEA3323F8D15DF8044B70475E
:102EB00011F0010F06D011F8012B0CF8012B002A9C
:102EC00008BF704711F0020FBFD031F8022B12F08B
:102ED000FF0F16BF2CF8022B8CF8002012F47F4F46
:102EE000B3D1704711F8012B0CF8012B002AF9D14E
:102EF000704700BF20F0030110F00300C0F1000094
:102F000051F8043B00F1040C4FEACC0C6FF00002C6
:102F10001CBF22FA0CF213434FF0010C4CEA0C2CAC
:102F20004CEA0C4CA3EB0C0222EA030212EACC128C
:102F300004BF51F8043B0430F4D0C2F1000102EAAE
:102F40000102B2FA82F2C2F11F0200EBD200704716
:102F5000F0B5DFF878E0164604460F46BEE80F00ED
:102F60008BB06D460FC5BEE80F000FC59EE803008D
:102F7000B31E45F8040B222B297022D87D1E28464B
:102F8000002200E01A46B4FBF6F10AAB06FB11443E
:102F900023440C4613F8283C00F8013F531C002939
:102FA000F0D1F954BB184AB1197815F8010F2970FE
:102FB0000134111B8C4203F80109F5DB38460BB0D4
:102FC000F0BD002038700BB0F0BD00BF8865000870
:102FD0000000000000000000202020202000200031
:102FE00050505000000000005050F850F850500071
:102FF0002078A07028F02000C0C810204098180049
:1030000040A0A040A89068003030204000000000A0
:1030100010204040402010004020101010204000A0
:103020000020A87070A82000002020F820200000B8
:103030000000000030302040000000F800000000D8
:103040000000000000303000000810204080000028
:10305000708888A888887000206020202020700058
:10306000708808708080F800F808103008887000B8
:1030700010305090F8101000F880F00808887000A8
:10308000384080F088887000F808081020408000E0
:103090007088887088887000708888780810E000D0
:1030A0000000200020000000000020002020400040
:1030B00008102040201008000000F800F800000070
:1030C00040201008102040007088083020002000A8
:1030D0007088A8B8B080780020508888F888880068
:1030E000F08888F08888F000708880808088700080
:1030F000F08888888888F000F88080F08080F80068
:10310000F88080F0808080007888808098887800BF
:10311000888888F888888800702020202020700007
:1031200038101010109060008890A0C0A090880007
:10313000808080808080F80088D8A8A8A88888002F
:103140008888C8A8988888007088888888887000CF
:10315000F08888F08080800070888888A890680057
:10316000F08888F0A09088007088807008887000CF
:10317000F8A820202020200088888888888870006F
:103180008888888888502000888888A8A8A8500047
:10319000888850205088880088885020202020006F
:1031A000F80810704080F8007840404040407800B7
:1031B00000804020100800007808080808087800FF
:1031C0002050880000000000000000000000F8000F
:1031D0006060201000000000000060107090780017
:1031E0008080B0C888C8B0000000708880887000F7
:1031F000080868988898680000007088F880700057
:103200001028207020202000000070989868087016
:103210008080B0C88888880020006020202070004E
:103220001000101010906000808090A0C0A090004E
:1032300060202020202070000000D0A8A8A8A800AE
:103240000000B0C8888888000000708888887000F6
:103250000000B0C8C8B0808000006898986808086E
:103260000000B0C880808000000078807008F00006
:103270002020F82020281000000088888898680006
:10328000000088888850200000008888A8A8500086
:1032900000008850205088000000888878088870D6
:1032A0000000F8102040F8001020204020201000DE
:1032B000202020002020200040202010202040003E
:1032C00040A8100000000000000000000000000006
:1032D00030787830300030006C6C6C0000000000FA
:1032E0006C6CFE6CFE6C6C00183E603C067C18003A
:1032F0000063660C183363001C361C3B6E663B0093
:1033000030306000000000000C18303030180C0025
:1033100030180C0C0C18300000663CFF3C660000B6
:10332000003030FC30300000000000000018183081
:103330000000007E000000000000000000181800DF
:1033400003060C18306040003E63636B63633E000D
:103350001838581818187E003C66061C30667E0027
:103360003C66061C06663C000E1E36667F060F0095
:103370007E607C0606663C001C30607C66663C0015
:103380007E66060C181818003C66663C66663C00B3
:103390003C66663E060C380000181800001818003D
:1033A00000181800001818300C18306030180C0085
:1033B00000007E00007E000030180C060C18300063
:1033C0003C66060C180018003E636F696F603E0093
:1033D000183C66667E6666007E33333E33337E007D
:1033E0001E33606060331E007C36333333367C001E
:1033F0007F31343C34317F007F31343C34307800CD
:103400001E33606067331F006666667E6666660010
:103410003C18181818183C000F06060666663C0093
:103420007333363C363373007830303031337F00BD
:1034300063777F7F6B63630063737B6F6763630096
:103440003E63636363633E007E33333E3030780017
:103450003C6666666E3C0E007E33333E3633730048
:103460003C6630180C663C007E5A181818183C0050
:103470006666666666667E0066666666663C180018
:103480006363636B7F7763006363361C1C36630082
:103490006666663C18183C007F63460C19337F0053
:1034A0003C30303030303C006030180C06030100F6
:1034B0003C0C0C0C0C0C3C00081C3663000000009B
:1034C00000000000000000FF18180C0000000000C1
:1034D00000003C063E663B0070303E3333336E00E6
:1034E00000003C6660663C000E063E6666663B0079
:1034F00000003C667E603C001C363078303078003E
:1035000000003B66663E067C7030363B333373000A
:103510001800381818183C00060006060666663CB7
:10352000703033363C3673003818181818183C00C1
:103530000000667F7F6B630000007C666666660045
:1035400000003C6666663C0000006E33333E307817
:1035500000003B66663E060F00006E3B333078008D
:1035600000003E603C067C0008183E18181A0C004B
:103570000000666666663B0000006666663C1800F2
:103580000000636B7F7F3600000063361C366300EB
:1035900000006666663E067C00007E4C18327E00A7
:1035A0000E18187018180E000C0C0C000C0C0C00E7
:1035B0007018180E181870003B6E00000000000014
:1035C00000000000000000000000000000000000FB
:1035D000001010101010101010100000181800002B
:1035E0003624480000000000000000000000000039
:1035F0000024242424FE48484848FC484848480001
:10360000103854929250301814129292543810007C
:103610000062929494680810202C5252928C000000
:10362000003048484848302054948888946200000C
:1036300030301020000000000000000000000000FA
:103640000408101020202020202020101008040042
:103650004020101008080808080808101020400032
:1036600000000010925438103854921000000000EE
:1036700000000000101010FE1010100000000000EC
:1036800000000000000000000000003030102000AA
:10369000000000000000007C0000000000000000AE
:1036A00000000000000000000000000030300000BA
:1036B000000202040408081020204040808000001E
:1036C0000030488484848484848484844830000066
:1036D00000107010101010101010101010100000BA
:1036E00000304884840408081020204080FC00003A
:1036F0000030488484040830080484844830000082
:1037000000080818182828484888FC0808080000FD
:1037100000FC808080B0C884040404844830000029
:10372000003048848480B0C8848484844830000099
:1037300000FC0404080808101010202020200000BD
:1037400000304884848448304884848448300000B1
:10375000003048848484844C3404848448300000DD
:103760000000000000303000000000303000000099
:103770000000000000303000000000303010200059
:1037800000000408102040804020100804000000C1
:1037900000000000007C0000007C00000000000031
:1037A0000000804020100804081020408000000025
:1037B00000304884840408102020000030300000CD
:1037C000003844829AAAAAAAAAAA9C80423C000075
:1037D000001010282828284444447C82828200005B
:1037E00000F88482828284F88482828284F80000D5
:1037F0000038448282808080808082824438000049
:1038000000F88482828282828282828284F800002E
:1038100000FE8080808080FC8080808080FE0000B0
:1038200000FE8080808080FC80808080808000001E
:1038300000384482828080808E828282463A0000F4
:1038400000828282828282FE828282828282000062
:103850000038101010101010101010101038000048
:1038600000040404040404040404848448300000B4
:1038700000828484889090A0D0888884828200000E
:1038800000808080808080808080808080FE00003A
:10389000008282C6C6C6C6AAAAAAAA9292920000AE
:1038A000008282C2C2A2A292928A8A868682000086
:1038B000003844828282828282828282443800007E
:1038C00000F88482828284F880808080808000007A
:1038D00000384482828282828282928A443A000044
:1038E00000F88482828284F888888484828200003E
:1038F00000384482828060180402828244380000CA
:1039000000FE1010101010101010101010100000F9
:103910000082828282828282828282824438000095
:103920000082828244444444282828101010000059
:103930000092929292AAAAAAAA4444444444000043
:1039400000828244442828102828444482820000AF
:10395000008282444428281010101010101000001B
:1039600000FE0204040808102020404080FE0000F1
:103970007C404040404040404040404040407C000F
:10398000008282444428287C10107C101010000013
:103990007C040404040404040404040404047C00FB
:1039A000102844000000000000000000000000009B
:1039B000000000000000000000000000000000FF08
:1039C0003030102000000000000000000000000067
:1039D0000000000000007884043C44848C760000E1
:1039E000008080808080B8C482828282C4B8000057
:1039F0000000000000003C4280808080423C0000CB
:103A00000002020202023A4682828282463A0000A4
:103A1000000000000000384482FE8080423C00002C
:103A2000001820202020F820202020202020000026
:103A30000000000000003A444438407C82827C0050
:103A4000008080808080B8C482828282828200006E
:103A500000001010000010101010101010100000C6
:103A60000000101000001010101010101010600056
:103A7000008080808080848890A0D088848200002C
:103A80000010101010101010101010101010000066
:103A9000000000000000ACD292929292929200003C
:103AA000000000000000B8C482828282828200008E
:103AB0000000000000003844828282824438000006
:103AC000000000000000B8C4828282C4B880800078
:103AD0000000000000003A46828282463A0202005C
:103AE0000000000000002E302020202020200000B8
:103AF0000000000000007C8280601C02827C0000CC
:103B0000000020202020F820202020202018000065
:103B1000000000000000828282828282463A000019
:103B20000000000000008282444428281010000099
:103B3000000000000000929292AAAA4444440000AF
:103B40000000000000008244281010284482000079
:103B50000000000000008282444428281020C00099
:103B6000000000000000FE040810204080FE00005D
:103B70001C101010101010201010101010101C002D
:103B80001010101010101010101010101010101035
:103B9000701010101010100810101010101070007D
:103BA0006498000000000000000000000000000019
:103BB0000000000000000000000000000000000005
:103BC000000000183C3C3C181800181800000000C9
:103BD00000000066666600000000000000000000B3
:103BE00000000036367F3636367F3636000000005D
:103BF0000018183C666030180C06663C1818000067
:103C0000000070D8DA760C18306E5B1B0E000000D6
:103C1000000000386C6C38606F66663B0000000086
:103C2000000000181818000000000000000000004C
:103C30000000000C1818303030303018180C00001C
:103C40000000003018180C0C0C0C0C181830000078
:103C50000000000000361C7F1C3600000000000041
:103C6000000000000018187E181800000000000076
:103C7000000000000000000000001C1C0C180000E8
:103C8000000000000000007E0000000000000000B6
:103C9000000000000000000000001C1C00000000EC
:103CA00000000006060C0C181830306060000000A0
:103CB0000000001E333737333B3B331E000000004B
:103CC0000000000C1C7C0C0C0C0C0C0C0000000008
:103CD0000000003C6666060C1830607E00000000A4
:103CE0000000003C6666061C0666663C000000009C
:103CF0000000003030363636667F060600000000D1
:103D00000000007E6060607C06060C780000000009
:103D10000000001C18307C666666663C00000000EF
:103D20000000007E060C0C18183030300000000037
:103D30000000003C6666763C6E66663C0000000053
:103D40000000003C666666663E0C18380000000005
:103D500000000000001C1C0000001C1C00000000F3
:103D600000000000001C1C0000001C1C0C180000BF
:103D7000000000060C18306030180C06000000002F
:103D80000000000000007E007E0000000000000037
:103D90000000006030180C060C18306000000000B5
:103DA0000000003C66660C1818001818000000009F
:103DB0000000007EC3C3CFDBDBCFC07F000000006C
:103DC000000000183C6666667E66666600000000BD
:103DD0000000007C6666667C6666667C000000000B
:103DE0000000003C666660606066663C00000000A3
:103DF000000000786C66666666666C7800000000FD
:103E00000000007E6060607C6060607E00000000FA
:103E10000000007E6060607C606060600000000008
:103E20000000003C666660606E66663E0000000052
:103E3000000000666666667E6666666600000000D4
:103E40000000003C181818181818183C0000000052
:103E500000000006060606060666663C0000000036
:103E600000000066666C6C786C6C66660000000092
:103E700000000060606060606060607E00000000C4
:103E80000000006363776B6B6B636363000000008B
:103E90000000006363737B6F67636363000000006F
:103EA0000000003C666666666666663C00000000D0
:103EB0000000007C6666667C606060600000000058
:103EC0000000003C666666666666663C0C0600009E
:103ED0000000007C6666667C6C666666000000001A
:103EE0000000003C666030180C06663C00000000D4
:103EF0000000007E18181818181818180000000084
:103F000000000066666666666666663C0000000045
:103F1000000000666666666666663C180000000083
:103F20000000006363636B6B6B3636360000000085
:103F300000000066663418182C66666600000000F3
:103F4000000000666666663C18181818000000003D
:103F50000000007E06060C183060607E0000000045
:103F60000000003C303030303030303030303C00F9
:103F70000000006060303018180C0C0606000000CD
:103F80000000003C0C0C0C0C0C0C0C0C0C0C3C0041
:103F900000183C6600000000000000000000000067
:103FA0000000000000000000000000000000FF0012
:103FB00000000018181800000000000000000000B9
:103FC00000000000003C06063E66663E0000000061
:103FD00000000060607C66666666667C000000002B
:103FE00000000000003C66606060663C000000006D
:103FF00000000006063E66666666663E000000003B
:1040000000000000003C66667E60603C000000002E
:104010000000001E3030307E3030303000000000B4
:1040200000000000003E66666666663E06067C008E
:1040300000000060607C66666666666600000000E0
:1040400000001818007818181818187E00000000D2
:1040500000000C0C003C0C0C0C0C0C0C0C0C780034
:10406000000000606066666C786C666600000000A8
:1040700000000078181818181818187E00000000A2
:1040800000000000007E6B6B6B6B6B630000000038
:1040900000000000007C6666666666660000000040
:1040A00000000000003C66666666663C000000009A
:1040B00000000000007C66666666667C60606000EA
:1040C00000000000003E66666666663E0606060064
:1040D0000000000000666E7060606060000000001C
:1040E00000000000003E60603C06067C000000000E
:1040F00000000030307E30303030301E00000000D4
:1041000000000000006666666666663E000000000D
:10411000000000000066666666663C18000000004D
:104120000000000000636B6B6B6B36360000000014
:10413000000000000066663C183C66660000000057
:1041400000000000006666666666663C0C18F000BB
:1041500000000000007E060C1830607E00000000A9
:104160000000000C1818183060301818180C0000E7
:10417000000000181818181818181818181818001F
:10418000000000301818180C060C18181830000021
:1041900000000071DB8E0000000000000000000045
:1041A000776169745F6265666F72655F737461726F
:1041B000745F6D6F746F72735F636F756E74000000
:1041C000000000000000000020202020200020002F
:1041D00050505000000000005050F850F85050006F
:1041E0002078A07028F02000C0C810204098180047
:1041F00040A0A040A890680030302040000000009F
:10420000102040404020100040201010102040009E
:104210000020A87070A82000002020F820200000B6
:104220000000000030302040000000F800000000D6
:104230000000000000303000000810204080000026
:10424000708888A888887000206020202020700056
:10425000708808708080F800F808103008887000B6
:1042600010305090F8101000F880F00808887000A6
:10427000384080F088887000F808081020408000DE
:104280007088887088887000708888780810E000CE
:10429000000020002000000000002000202040003E
:1042A00008102040201008000000F800F80000006E
:1042B00040201008102040007088083020002000A6
:1042C0007088A8B8B080780020508888F888880066
:1042D000F08888F08888F00070888080808870007E
:1042E000F08888888888F000F88080F08080F80066
:1042F000F88080F0808080007888808098887800BE
:10430000888888F888888800702020202020700005
:1043100038101010109060008890A0C0A090880005
:10432000808080808080F80088D8A8A8A88888002D
:104330008888C8A8988888007088888888887000CD
:10434000F08888F08080800070888888A890680055
:10435000F08888F0A09088007088807008887000CD
:10436000F8A820202020200088888888888870006D
:104370008888888888502000888888A8A8A8500045
:10438000888850205088880088885020202020006D
:10439000F80810704080F8007840404040407800B5
:1043A00000804020100800007808080808087800FD
:1043B0002050880000000000000000000000F8000D
:1043C0006060201000000000000060107090780015
:1043D0008080B0C888C8B0000000708880887000F5
:1043E000080868988898680000007088F880700055
:1043F0001028207020202000000070989868087015
:104400008080B0C88888880020006020202070004C
:104410001000101010906000808090A0C0A090004C
:1044200060202020202070000000D0A8A8A8A800AC
:104430000000B0C8888888000000708888887000F4
:104440000000B0C8C8B0808000006898986808086C
:104450000000B0C880808000000078807008F00004
:104460002020F82020281000000088888898680004
:10447000000088888850200000008888A8A8500084
:1044800000008850205088000000888878088870D4
:104490000000F8102040F8001020204020201000DC
:1044A000202020002020200040202010202040003C
:1044B00040A8100000000000000000000000000004
:1044C00030787830300030006C6C6C0000000000F8
:1044D0006C6CFE6CFE6C6C00183E603C067C180038
:1044E0000063660C183363001C361C3B6E663B0091
:1044F00030306000000000000C18303030180C0024
:1045000030180C0C0C18300000663CFF3C660000B4
:10451000003030FC3030000000000000001818307F
:104520000000007E000000000000000000181800DD
:1045300003060C18306040003E63636B63633E000B
:104540001838581818187E003C66061C30667E0025
:104550003C66061C06663C000E1E36667F060F0093
:104560007E607C0606663C001C30607C66663C0013
:104570007E66060C181818003C66663C66663C00B1
:104580003C66663E060C380000181800001818003B
:1045900000181800001818300C18306030180C0083
:1045A00000007E00007E000030180C060C18300061
:1045B0003C66060C180018003E636F696F603E0091
:1045C000183C66667E6666007E33333E33337E007B
:1045D0001E33606060331E007C36333333367C001C
:1045E0007F31343C34317F007F31343C34307800CB
:1045F0001E33606067331F006666667E666666000F
:104600003C18181818183C000F06060666663C0091
:104610007333363C363373007830303031337F00BB
:1046200063777F7F6B63630063737B6F6763630094
:104630003E63636363633E007E33333E3030780015
:104640003C6666666E3C0E007E33333E3633730046
:104650003C6630180C663C007E5A181818183C004E
:104660006666666666667E0066666666663C180016
:104670006363636B7F7763006363361C1C36630080
:104680006666663C18183C007F63460C19337F0051
:104690003C30303030303C006030180C06030100F4
:1046A0003C0C0C0C0C0C3C00081C36630000000099
:1046B00000000000000000FF18180C0000000000BF
:1046C00000003C063E663B0070303E3333336E00E4
:1046D00000003C6660663C000E063E6666663B0077
:1046E00000003C667E603C001C363078303078003C
:1046F00000003B66663E067C7030363B3333730009
:104700001800381818183C00060006060666663CB5
:10471000703033363C3673003818181818183C00BF
:104720000000667F7F6B630000007C666666660043
:1047300000003C6666663C0000006E33333E307815
:1047400000003B66663E060F00006E3B333078008B
:1047500000003E603C067C0008183E18181A0C0049
:104760000000666666663B0000006666663C1800F0
:104770000000636B7F7F3600000063361C366300E9
:1047800000006666663E067C00007E4C18327E00A5
:104790000E18187018180E000C0C0C000C0C0C00E5
:1047A0007018180E181870003B6E00000000000012
:1047B00000000000000000000000000000000000F9
:1047C0000010101010101010101000001818000029
:1047D0003624480000000000000000000000000037
:1047E0000024242424FE48484848FC4848484800FF
:1047F000103854929250301814129292543810007B
:104800000062929494680810202C5252928C0000FE
:10481000003048484848302054948888946200000A
:1048200030301020000000000000000000000000F8
:104830000408101020202020202020101008040040
:104840004020101008080808080808101020400030
:1048500000000010925438103854921000000000EC
:1048600000000000101010FE1010100000000000EA
:1048700000000000000000000000003030102000A8
:10488000000000000000007C0000000000000000AC
:1048900000000000000000000000000030300000B8
:1048A000000202040408081020204040808000001C
:1048B0000030488484848484848484844830000064
:1048C00000107010101010101010101010100000B8
:1048D00000304884840408081020204080FC000038
:1048E0000030488484040830080484844830000080
:1048F00000080818182828484888FC0808080000FC
:1049000000FC808080B0C884040404844830000027
:10491000003048848480B0C8848484844830000097
:1049200000FC0404080808101010202020200000BB
:1049300000304884848448304884848448300000AF
:10494000003048848484844C3404848448300000DB
:104950000000000000303000000000303000000097
:104960000000000000303000000000303010200057
:1049700000000408102040804020100804000000BF
:1049800000000000007C0000007C0000000000002F
:104990000000804020100804081020408000000023
:1049A00000304884840408102020000030300000CB
:1049B000003844829AAAAAAAAAAA9C80423C000073
:1049C000001010282828284444447C828282000059
:1049D00000F88482828284F88482828284F80000D3
:1049E0000038448282808080808082824438000047
:1049F00000F88482828282828282828284F800002D
:104A000000FE8080808080FC8080808080FE0000AE
:104A100000FE8080808080FC80808080808000001C
:104A200000384482828080808E828282463A0000F2
:104A300000828282828282FE828282828282000060
:104A40000038101010101010101010101038000046
:104A500000040404040404040404848448300000B2
:104A600000828484889090A0D0888884828200000C
:104A700000808080808080808080808080FE000038
:104A8000008282C6C6C6C6AAAAAAAA9292920000AC
:104A9000008282C2C2A2A292928A8A868682000084
:104AA000003844828282828282828282443800007C
:104AB00000F88482828284F8808080808080000078
:104AC00000384482828282828282928A443A000042
:104AD00000F88482828284F888888484828200003C
:104AE00000384482828060180402828244380000C8
:104AF00000FE1010101010101010101010100000F8
:104B00000082828282828282828282824438000093
:104B10000082828244444444282828101010000057
:104B20000092929292AAAAAAAA4444444444000041
:104B300000828244442828102828444482820000AD
:104B40000082824444282810101010101010000019
:104B500000FE0204040808102020404080FE0000EF
:104B60007C404040404040404040404040407C000D
:104B7000008282444428287C10107C101010000011
:104B80007C040404040404040404040404047C00F9
:104B90001028440000000000000000000000000099
:104BA000000000000000000000000000000000FF06
:104BB0003030102000000000000000000000000065
:104BC0000000000000007884043C44848C760000DF
:104BD000008080808080B8C482828282C4B8000055
:104BE0000000000000003C4280808080423C0000C9
:104BF0000002020202023A4682828282463A0000A3
:104C0000000000000000384482FE8080423C00002A
:104C1000001820202020F820202020202020000024
:104C20000000000000003A444438407C82827C004E
:104C3000008080808080B8C482828282828200006C
:104C400000001010000010101010101010100000C4
:104C50000000101000001010101010101010600054
:104C6000008080808080848890A0D088848200002A
:104C70000010101010101010101010101010000064
:104C8000000000000000ACD292929292929200003A
:104C9000000000000000B8C482828282828200008C
:104CA0000000000000003844828282824438000004
:104CB000000000000000B8C4828282C4B880800076
:104CC0000000000000003A46828282463A0202005A
:104CD0000000000000002E302020202020200000B6
:104CE0000000000000007C8280601C02827C0000CA
:104CF000000020202020F820202020202018000064
:104D0000000000000000828282828282463A000017
:104D10000000000000008282444428281010000097
:104D2000000000000000929292AAAA4444440000AD
:104D30000000000000008244281010284482000077
:104D40000000000000008282444428281020C00097
:104D5000000000000000FE040810204080FE00005B
:104D60001C101010101010201010101010101C002B
:104D70001010101010101010101010101010101033
:104D8000701010101010100810101010101070007B
:104D90006498000000000000000000000000000017
:104DA0000000000000000000000000000000000003
:104DB000000000183C3C3C181800181800000000C7
:104DC00000000066666600000000000000000000B1
:104DD00000000036367F3636367F3636000000005B
:104DE0000018183C666030180C06663C1818000065
:104DF000000070D8DA760C18306E5B1B0E000000D5
:104E0000000000386C6C38606F66663B0000000084
:104E1000000000181818000000000000000000004A
:104E20000000000C1818303030303018180C00001A
:104E30000000003018180C0C0C0C0C181830000076
:104E40000000000000361C7F1C360000000000003F
:104E5000000000000018187E181800000000000074
:104E6000000000000000000000001C1C0C180000E6
:104E7000000000000000007E0000000000000000B4
:104E8000000000000000000000001C1C00000000EA
:104E900000000006060C0C1818303060600000009E
:104EA0000000001E333737333B3B331E0000000049
:104EB0000000000C1C7C0C0C0C0C0C0C0000000006
:104EC0000000003C6666060C1830607E00000000A2
:104ED0000000003C6666061C0666663C000000009A
:104EE0000000003030363636667F060600000000CF
:104EF0000000007E6060607C06060C780000000008
:104F00000000001C18307C666666663C00000000ED
:104F10000000007E060C0C18183030300000000035
:104F20000000003C6666763C6E66663C0000000051
:104F30000000003C666666663E0C18380000000003
:104F400000000000001C1C0000001C1C00000000F1
:104F500000000000001C1C0000001C1C0C180000BD
:104F6000000000060C18306030180C06000000002D
:104F70000000000000007E007E0000000000000035
:104F80000000006030180C060C18306000000000B3
:104F90000000003C66660C1818001818000000009D
:104FA0000000007EC3C3CFDBDBCFC07F000000006A
:104FB000000000183C6666667E66666600000000BB
:104FC0000000007C6666667C6666667C0000000009
:104FD0000000003C666660606066663C00000000A1
:104FE000000000786C66666666666C7800000000FB
:104FF0000000007E6060607C6060607E00000000F9
:105000000000007E6060607C606060600000000006
:105010000000003C666660606E66663E0000000050
:10502000000000666666667E6666666600000000D2
:105030000000003C181818181818183C0000000050
:1050400000000006060606060666663C0000000034
:1050500000000066666C6C786C6C66660000000090
:1050600000000060606060606060607E00000000C2
:105070000000006363776B6B6B6363630000000089
:105080000000006363737B6F67636363000000006D
:105090000000003C666666666666663C00000000CE
:1050A0000000007C6666667C606060600000000056
:1050B0000000003C666666666666663C0C0600009C
:1050C0000000007C6666667C6C6666660000000018
:1050D0000000003C666030180C06663C00000000D2
:1050E0000000007E18181818181818180000000082
:1050F00000000066666666666666663C0000000044
:10510000000000666666666666663C180000000081
:105110000000006363636B6B6B3636360000000083
:1051200000000066663418182C66666600000000F1
:10513000000000666666663C18181818000000003B
:105140000000007E06060C183060607E0000000043
:105150000000003C303030303030303030303C00F7
:105160000000006060303018180C0C0606000000CB
:105170000000003C0C0C0C0C0C0C0C0C0C0C3C003F
:1051800000183C6600000000000000000000000065
:105190000000000000000000000000000000FF0010
:1051A00000000018181800000000000000000000B7
:1051B00000000000003C06063E66663E000000005F
:1051C00000000060607C66666666667C0000000029
:1051D00000000000003C66606060663C000000006B
:1051E00000000006063E66666666663E0000000039
:1051F00000000000003C66667E60603C000000002D
:105200000000001E3030307E3030303000000000B2
:1052100000000000003E66666666663E06067C008C
:1052200000000060607C66666666666600000000DE
:1052300000001818007818181818187E00000000D0
:1052400000000C0C003C0C0C0C0C0C0C0C0C780032
:10525000000000606066666C786C666600000000A6
:1052600000000078181818181818187E00000000A0
:1052700000000000007E6B6B6B6B6B630000000036
:1052800000000000007C666666666666000000003E
:1052900000000000003C66666666663C0000000098
:1052A00000000000007C66666666667C60606000E8
:1052B00000000000003E66666666663E0606060062
:1052C0000000000000666E7060606060000000001A
:1052D00000000000003E60603C06067C000000000C
:1052E00000000030307E30303030301E00000000D2
:1052F00000000000006666666666663E000000000C
:10530000000000000066666666663C18000000004B
:105310000000000000636B6B6B6B36360000000012
:10532000000000000066663C183C66660000000055
:1053300000000000006666666666663C0C18F000B9
:1053400000000000007E060C1830607E00000000A7
:105350000000000C1818183060301818180C0000E5
:10536000000000181818181818181818181818001D
:10537000000000301818180C060C1818183000001F
:1053800000000071DB8E0000000000000000000043
:10539000000000000000000020202020200020004D
:1053A00050505000000000005050F850F85050008D
:1053B0002078A07028F02000C0C810204098180065
:1053C00040A0A040A89068003030204000000000BD
:1053D00010204040402010004020101010204000BD
:1053E0000020A87070A82000002020F820200000D5
:1053F0000000000030302040000000F800000000F5
:105400000000000000303000000810204080000044
:10541000708888A888887000206020202020700074
:10542000708808708080F800F808103008887000D4
:1054300010305090F8101000F880F00808887000C4
:10544000384080F088887000F808081020408000FC
:105450007088887088887000708888780810E000EC
:10546000000020002000000000002000202040005C
:1054700008102040201008000000F800F80000008C
:1054800040201008102040007088083020002000C4
:105490007088A8B8B080780020508888F888880084
:1054A000F08888F08888F00070888080808870009C
:1054B000F08888888888F000F88080F08080F80084
:1054C000F88080F0808080007888808098887800DC
:1054D000888888F888888800702020202020700024
:1054E00038101010109060008890A0C0A090880024
:1054F000808080808080F80088D8A8A8A88888004C
:105500008888C8A8988888007088888888887000EB
:10551000F08888F08080800070888888A890680073
:10552000F08888F0A09088007088807008887000EB
:10553000F8A820202020200088888888888870008B
:105540008888888888502000888888A8A8A8500063
:10555000888850205088880088885020202020008B
:10556000F80810704080F8007840404040407800D3
:10557000008040201008000078080808080878001B
:105580002050880000000000000000000000F8002B
:105590006060201000000000000060107090780033
:1055A0008080B0C888C8B000000070888088700013
:1055B000080868988898680000007088F880700073
:1055C0001028207020202000000070989868087033
:1055D0008080B0C88888880020006020202070006B
:1055E0001000101010906000808090A0C0A090006B
:1055F00060202020202070000000D0A8A8A8A800CB
:105600000000B0C888888800000070888888700012
:105610000000B0C8C8B0808000006898986808088A
:105620000000B0C880808000000078807008F00022
:105630002020F82020281000000088888898680022
:10564000000088888850200000008888A8A85000A2
:1056500000008850205088000000888878088870F2
:105660000000F8102040F8001020204020201000FA
:10567000202020002020200040202010202040005A
:1056800040A8100000000000000000000000000022
:1056900030787830300030006C6C6C000000000016
:1056A0006C6CFE6CFE6C6C00183E603C067C180056
:1056B0000063660C183363001C361C3B6E663B00AF
:1056C00030306000000000000C18303030180C0042
:1056D00030180C0C0C18300000663CFF3C660000D3
:1056E000003030FC3030000000000000001818309E
:1056F0000000007E000000000000000000181800FC
:1057000003060C18306040003E63636B63633E0029
:105710001838581818187E003C66061C30667E0043
:105720003C66061C06663C000E1E36667F060F00B1
:105730007E607C0606663C001C30607C66663C0031
:105740007E66060C181818003C66663C66663C00CF
:105750003C66663E060C3800001818000018180059
:1057600000181800001818300C18306030180C00A1
:1057700000007E00007E000030180C060C1830007F
:105780003C66060C180018003E636F696F603E00AF
:10579000183C66667E6666007E33333E33337E0099
:1057A0001E33606060331E007C36333333367C003A
:1057B0007F31343C34317F007F31343C34307800E9
:1057C0001E33606067331F006666667E666666002D
:1057D0003C18181818183C000F06060666663C00B0
:1057E0007333363C363373007830303031337F00DA
:1057F00063777F7F6B63630063737B6F67636300B3
:105800003E63636363633E007E33333E3030780033
:105810003C6666666E3C0E007E33333E3633730064
:105820003C6630180C663C007E5A181818183C006C
:105830006666666666667E0066666666663C180034
:105840006363636B7F7763006363361C1C3663009E
:105850006666663C18183C007F63460C19337F006F
:105860003C30303030303C006030180C0603010012
:105870003C0C0C0C0C0C3C00081C366300000000B7
:1058800000000000000000FF18180C0000000000DD
:1058900000003C063E663B0070303E3333336E0002
:1058A00000003C6660663C000E063E6666663B0095
:1058B00000003C667E603C001C363078303078005A
:1058C00000003B66663E067C7030363B3333730027
:1058D0001800381818183C00060006060666663CD4
:1058E000703033363C3673003818181818183C00DE
:1058F0000000667F7F6B630000007C666666660062
:1059000000003C6666663C0000006E33333E307833
:1059100000003B66663E060F00006E3B33307800A9
:1059200000003E603C067C0008183E18181A0C0067
:105930000000666666663B0000006666663C18000E
:105940000000636B7F7F3600000063361C36630007
:1059500000006666663E067C00007E4C18327E00C3
:105960000E18187018180E000C0C0C000C0C0C0003
:105970007018180E181870003B6E00000000000030
:105980000000000000000000000000000000000017
:105990000010101010101010101000001818000047
:1059A0003624480000000000000000000000000055
:1059B0000024242424FE48484848FC48484848001D
:1059C0001038549292503018141292925438100099
:1059D0000062929494680810202C5252928C00001D
:1059E0000030484848483020549488889462000029
:1059F0003030102000000000000000000000000017
:105A0000040810102020202020202010100804005E
:105A1000402010100808080808080810102040004E
:105A2000000000109254381038549210000000000A
:105A300000000000101010FE101010000000000008
:105A400000000000000000000000003030102000C6
:105A5000000000000000007C0000000000000000CA
:105A600000000000000000000000000030300000D6
:105A7000000202040408081020204040808000003A
:105A80000030488484848484848484844830000082
:105A900000107010101010101010101010100000D6
:105AA00000304884840408081020204080FC000056
:105AB000003048848404083008048484483000009E
:105AC00000080818182828484888FC08080800001A
:105AD00000FC808080B0C884040404844830000046
